{
  "contracts/CounterWithTimer.sol": {
    "CounterWithTimer": {
      "abi": [
        {
          "inputs": [],
          "stateMutability": "nonpayable",
          "type": "constructor"
        },
        {
          "anonymous": false,
          "inputs": [
            {
              "indexed": false,
              "internalType": "uint256",
              "name": "count",
              "type": "uint256"
            }
          ],
          "name": "CounterDecremented",
          "type": "event"
        },
        {
          "anonymous": false,
          "inputs": [
            {
              "indexed": false,
              "internalType": "uint256",
              "name": "count",
              "type": "uint256"
            }
          ],
          "name": "CounterIncremented",
          "type": "event"
        },
        {
          "anonymous": false,
          "inputs": [
            {
              "indexed": false,
              "internalType": "uint256",
              "name": "delay",
              "type": "uint256"
            }
          ],
          "name": "TimerSet",
          "type": "event"
        },
        {
          "inputs": [],
          "name": "decrement",
          "outputs": [],
          "stateMutability": "nonpayable",
          "type": "function"
        },
        {
          "inputs": [],
          "name": "getCount",
          "outputs": [
            {
              "internalType": "uint256",
              "name": "",
              "type": "uint256"
            }
          ],
          "stateMutability": "view",
          "type": "function"
        },
        {
          "inputs": [],
          "name": "getTimeRemaining",
          "outputs": [
            {
              "internalType": "uint256",
              "name": "",
              "type": "uint256"
            }
          ],
          "stateMutability": "view",
          "type": "function"
        },
        {
          "inputs": [],
          "name": "increment",
          "outputs": [],
          "stateMutability": "nonpayable",
          "type": "function"
        },
        {
          "inputs": [
            {
              "internalType": "uint256",
              "name": "delay",
              "type": "uint256"
            }
          ],
          "name": "setTimer",
          "outputs": [],
          "stateMutability": "nonpayable",
          "type": "function"
        }
      ],
      "evm": {
        "bytecode": {
          "linkReferences": {},
          "object": "608060405234801561001057600080fd5b5060008055426001556102fa806100286000396000f3fe608060405234801561001057600080fd5b50600436106100575760003560e01c80632baeceb71461005c578063a87d942c14610066578063b976bd171461007c578063d09de08a1461008f578063dac6270d14610097575b600080fd5b61006461009f565b005b6000545b60405190815260200160405180910390f35b61006461008a366004610239565b610140565b610064610183565b61006a610215565b6001544210156100ef5760405162461bcd60e51b815260206004820152601660248201527554696d6572206973207374696c6c2072756e6e696e6760501b60448201526064015b60405180910390fd5b6000805490806100fe83610268565b91905055507f1a00a27c962d5410357331e1a8cffff62058bd0161ad624818df31152f1eeb4560005460405161013691815260200190565b60405180910390a1565b61014a814261027f565b6001556040518181527fc0aa764aa85d2e99a0f5ac18a2fc855849970032cf45160283a5957a781b77899060200160405180910390a150565b6001544210156101ce5760405162461bcd60e51b815260206004820152601660248201527554696d6572206973207374696c6c2072756e6e696e6760501b60448201526064016100e6565b6000805490806101dd83610298565b91905055507f3cf8b50771c17d723f2cb711ca7dadde485b222e13c84ba0730a14093fad6d5c60005460405161013691815260200190565b600060015442106102265750600090565b4260015461023491906102b1565b905090565b60006020828403121561024b57600080fd5b5035919050565b634e487b7160e01b600052601160045260246000fd5b60008161027757610277610252565b506000190190565b8082018082111561029257610292610252565b92915050565b6000600182016102aa576102aa610252565b5060010190565b818103818111156102925761029261025256fea2646970667358221220bf3991c934709fc674515b1e616a0abc4ae8bce102f525083b01c1df8de2037264736f6c63430008180033",
          "opcodes": "PUSH1 0x80 PUSH1 0x40 MSTORE CALLVALUE DUP1 ISZERO PUSH2 0x10 JUMPI PUSH1 0x0 DUP1 REVERT JUMPDEST POP PUSH1 0x0 DUP1 SSTORE TIMESTAMP PUSH1 0x1 SSTORE PUSH2 0x2FA DUP1 PUSH2 0x28 PUSH1 0x0 CODECOPY PUSH1 0x0 RETURN INVALID PUSH1 0x80 PUSH1 0x40 MSTORE CALLVALUE DUP1 ISZERO PUSH2 0x10 JUMPI PUSH1 0x0 DUP1 REVERT JUMPDEST POP PUSH1 0x4 CALLDATASIZE LT PUSH2 0x57 JUMPI PUSH1 0x0 CALLDATALOAD PUSH1 0xE0 SHR DUP1 PUSH4 0x2BAECEB7 EQ PUSH2 0x5C JUMPI DUP1 PUSH4 0xA87D942C EQ PUSH2 0x66 JUMPI DUP1 PUSH4 0xB976BD17 EQ PUSH2 0x7C JUMPI DUP1 PUSH4 0xD09DE08A EQ PUSH2 0x8F JUMPI DUP1 PUSH4 0xDAC6270D EQ PUSH2 0x97 JUMPI JUMPDEST PUSH1 0x0 DUP1 REVERT JUMPDEST PUSH2 0x64 PUSH2 0x9F JUMP JUMPDEST STOP JUMPDEST PUSH1 0x0 SLOAD JUMPDEST PUSH1 0x40 MLOAD SWAP1 DUP2 MSTORE PUSH1 0x20 ADD PUSH1 0x40 MLOAD DUP1 SWAP2 SUB SWAP1 RETURN JUMPDEST PUSH2 0x64 PUSH2 0x8A CALLDATASIZE PUSH1 0x4 PUSH2 0x239 JUMP JUMPDEST PUSH2 0x140 JUMP JUMPDEST PUSH2 0x64 PUSH2 0x183 JUMP JUMPDEST PUSH2 0x6A PUSH2 0x215 JUMP JUMPDEST PUSH1 0x1 SLOAD TIMESTAMP LT ISZERO PUSH2 0xEF JUMPI PUSH1 0x40 MLOAD PUSH3 0x461BCD PUSH1 0xE5 SHL DUP2 MSTORE PUSH1 0x20 PUSH1 0x4 DUP3 ADD MSTORE PUSH1 0x16 PUSH1 0x24 DUP3 ADD MSTORE PUSH22 0x54696D6572206973207374696C6C2072756E6E696E67 PUSH1 0x50 SHL PUSH1 0x44 DUP3 ADD MSTORE PUSH1 0x64 ADD JUMPDEST PUSH1 0x40 MLOAD DUP1 SWAP2 SUB SWAP1 REVERT JUMPDEST PUSH1 0x0 DUP1 SLOAD SWAP1 DUP1 PUSH2 0xFE DUP4 PUSH2 0x268 JUMP JUMPDEST SWAP2 SWAP1 POP SSTORE POP PUSH32 0x1A00A27C962D5410357331E1A8CFFFF62058BD0161AD624818DF31152F1EEB45 PUSH1 0x0 SLOAD PUSH1 0x40 MLOAD PUSH2 0x136 SWAP2 DUP2 MSTORE PUSH1 0x20 ADD SWAP1 JUMP JUMPDEST PUSH1 0x40 MLOAD DUP1 SWAP2 SUB SWAP1 LOG1 JUMP JUMPDEST PUSH2 0x14A DUP2 TIMESTAMP PUSH2 0x27F JUMP JUMPDEST PUSH1 0x1 SSTORE PUSH1 0x40 MLOAD DUP2 DUP2 MSTORE PUSH32 0xC0AA764AA85D2E99A0F5AC18A2FC855849970032CF45160283A5957A781B7789 SWAP1 PUSH1 0x20 ADD PUSH1 0x40 MLOAD DUP1 SWAP2 SUB SWAP1 LOG1 POP JUMP JUMPDEST PUSH1 0x1 SLOAD TIMESTAMP LT ISZERO PUSH2 0x1CE JUMPI PUSH1 0x40 MLOAD PUSH3 0x461BCD PUSH1 0xE5 SHL DUP2 MSTORE PUSH1 0x20 PUSH1 0x4 DUP3 ADD MSTORE PUSH1 0x16 PUSH1 0x24 DUP3 ADD MSTORE PUSH22 0x54696D6572206973207374696C6C2072756E6E696E67 PUSH1 0x50 SHL PUSH1 0x44 DUP3 ADD MSTORE PUSH1 0x64 ADD PUSH2 0xE6 JUMP JUMPDEST PUSH1 0x0 DUP1 SLOAD SWAP1 DUP1 PUSH2 0x1DD DUP4 PUSH2 0x298 JUMP JUMPDEST SWAP2 SWAP1 POP SSTORE POP PUSH32 0x3CF8B50771C17D723F2CB711CA7DADDE485B222E13C84BA0730A14093FAD6D5C PUSH1 0x0 SLOAD PUSH1 0x40 MLOAD PUSH2 0x136 SWAP2 DUP2 MSTORE PUSH1 0x20 ADD SWAP1 JUMP JUMPDEST PUSH1 0x0 PUSH1 0x1 SLOAD TIMESTAMP LT PUSH2 0x226 JUMPI POP PUSH1 0x0 SWAP1 JUMP JUMPDEST TIMESTAMP PUSH1 0x1 SLOAD PUSH2 0x234 SWAP2 SWAP1 PUSH2 0x2B1 JUMP JUMPDEST SWAP1 POP SWAP1 JUMP JUMPDEST PUSH1 0x0 PUSH1 0x20 DUP3 DUP5 SUB SLT ISZERO PUSH2 0x24B JUMPI PUSH1 0x0 DUP1 REVERT JUMPDEST POP CALLDATALOAD SWAP2 SWAP1 POP JUMP JUMPDEST PUSH4 0x4E487B71 PUSH1 0xE0 SHL PUSH1 0x0 MSTORE PUSH1 0x11 PUSH1 0x4 MSTORE PUSH1 0x24 PUSH1 0x0 REVERT JUMPDEST PUSH1 0x0 DUP2 PUSH2 0x277 JUMPI PUSH2 0x277 PUSH2 0x252 JUMP JUMPDEST POP PUSH1 0x0 NOT ADD SWAP1 JUMP JUMPDEST DUP1 DUP3 ADD DUP1 DUP3 GT ISZERO PUSH2 0x292 JUMPI PUSH2 0x292 PUSH2 0x252 JUMP JUMPDEST SWAP3 SWAP2 POP POP JUMP JUMPDEST PUSH1 0x0 PUSH1 0x1 DUP3 ADD PUSH2 0x2AA JUMPI PUSH2 0x2AA PUSH2 0x252 JUMP JUMPDEST POP PUSH1 0x1 ADD SWAP1 JUMP JUMPDEST DUP2 DUP2 SUB DUP2 DUP2 GT ISZERO PUSH2 0x292 JUMPI PUSH2 0x292 PUSH2 0x252 JUMP INVALID LOG2 PUSH5 0x6970667358 0x22 SLT KECCAK256 0xBF CODECOPY SWAP2 0xC9 CALLVALUE PUSH17 0x9FC674515B1E616A0ABC4AE8BCE102F525 ADDMOD EXTCODESIZE ADD 0xC1 0xDF DUP14 0xE2 SUB PUSH19 0x64736F6C634300081800330000000000000000 "
        },
        "methodIdentifiers": {
          "decrement()": "2baeceb7",
          "getCount()": "a87d942c",
          "getTimeRemaining()": "dac6270d",
          "increment()": "d09de08a",
          "setTimer(uint256)": "b976bd17"
        }
      }
    }
  }
}