{
  "_format": "hh-sol-artifact-1",
  "contractName": "CounterWithTimer",
  "sourceName": "contracts/CounterWithTimer.sol",
  "abi": [
    {
      "inputs": [],
      "stateMutability": "nonpayable",
      "type": "constructor"
    },
    {
      "anonymous": false,
      "inputs": [
        {
          "indexed": false,
          "internalType": "uint256",
          "name": "count",
          "type": "uint256"
        }
      ],
      "name": "CounterDecremented",
      "type": "event"
    },
    {
      "anonymous": false,
      "inputs": [
        {
          "indexed": false,
          "internalType": "uint256",
          "name": "count",
          "type": "uint256"
        }
      ],
      "name": "CounterIncremented",
      "type": "event"
    },
    {
      "anonymous": false,
      "inputs": [
        {
          "indexed": false,
          "internalType": "uint256",
          "name": "delay",
          "type": "uint256"
        }
      ],
      "name": "TimerSet",
      "type": "event"
    },
    {
      "inputs": [],
      "name": "count",
      "outputs": [
        {
          "internalType": "uint256",
          "name": "",
          "type": "uint256"
        }
      ],
      "stateMutability": "view",
      "type": "function"
    },
    {
      "inputs": [],
      "name": "decrement",
      "outputs": [],
      "stateMutability": "nonpayable",
      "type": "function"
    },
    {
      "inputs": [],
      "name": "getCount",
      "outputs": [
        {
          "internalType": "uint256",
          "name": "",
          "type": "uint256"
        }
      ],
      "stateMutability": "view",
      "type": "function"
    },
    {
      "inputs": [],
      "name": "getTimeRemaining",
      "outputs": [
        {
          "internalType": "uint256",
          "name": "",
          "type": "uint256"
        }
      ],
      "stateMutability": "view",
      "type": "function"
    },
    {
      "inputs": [],
      "name": "increment",
      "outputs": [],
      "stateMutability": "nonpayable",
      "type": "function"
    },
    {
      "inputs": [],
      "name": "nextAuctionTime",
      "outputs": [
        {
          "internalType": "uint256",
          "name": "",
          "type": "uint256"
        }
      ],
      "stateMutability": "view",
      "type": "function"
    },
    {
      "inputs": [
        {
          "internalType": "uint256",
          "name": "delay",
          "type": "uint256"
        }
      ],
      "name": "setTimer",
      "outputs": [],
      "stateMutability": "nonpayable",
      "type": "function"
    }
  ],
  "bytecode": "0x608060405234801561001057600080fd5b506000805542600155610336806100286000396000f3fe608060405234801561001057600080fd5b506004361061007d5760003560e01c8063a87d942c1161005b578063a87d942c146100b0578063b976bd17146100b8578063d09de08a146100cb578063dac6270d146100d357600080fd5b806306661abd146100825780630ba2ffbf1461009d5780632baeceb7146100a6575b600080fd5b61008b60005481565b60405190815260200160405180910390f35b61008b60015481565b6100ae6100db565b005b60005461008b565b6100ae6100c6366004610275565b61017c565b6100ae6101bf565b61008b610251565b60015442101561012b5760405162461bcd60e51b815260206004820152601660248201527554696d6572206973207374696c6c2072756e6e696e6760501b60448201526064015b60405180910390fd5b60008054908061013a836102a4565b91905055507f1a00a27c962d5410357331e1a8cffff62058bd0161ad624818df31152f1eeb4560005460405161017291815260200190565b60405180910390a1565b61018681426102bb565b6001556040518181527fc0aa764aa85d2e99a0f5ac18a2fc855849970032cf45160283a5957a781b77899060200160405180910390a150565b60015442101561020a5760405162461bcd60e51b815260206004820152601660248201527554696d6572206973207374696c6c2072756e6e696e6760501b6044820152606401610122565b600080549080610219836102d4565b91905055507f3cf8b50771c17d723f2cb711ca7dadde485b222e13c84ba0730a14093fad6d5c60005460405161017291815260200190565b600060015442106102625750600090565b4260015461027091906102ed565b905090565b60006020828403121561028757600080fd5b5035919050565b634e487b7160e01b600052601160045260246000fd5b6000816102b3576102b361028e565b506000190190565b808201808211156102ce576102ce61028e565b92915050565b6000600182016102e6576102e661028e565b5060010190565b818103818111156102ce576102ce61028e56fea26469706673582212209690d7ecb00cdd2f9431723888af449eb546cf3d980f5c1fdbe0ca43ae9caa8064736f6c63430008180033",
  "linkReferences": {},
  "deployedLinkReferences": {}
}