{
  "_format": "hh-sol-artifact-1",
  "contractName": "CounterWithTimer",
  "sourceName": "contracts/CounterWithTimer.sol",
  "abi": [
    {
      "inputs": [],
      "stateMutability": "nonpayable",
      "type": "constructor"
    },
    {
      "anonymous": false,
      "inputs": [
        {
          "indexed": false,
          "internalType": "uint256",
          "name": "count",
          "type": "uint256"
        }
      ],
      "name": "CounterDecremented",
      "type": "event"
    },
    {
      "anonymous": false,
      "inputs": [
        {
          "indexed": false,
          "internalType": "uint256",
          "name": "count",
          "type": "uint256"
        }
      ],
      "name": "CounterIncremented",
      "type": "event"
    },
    {
      "anonymous": false,
      "inputs": [
        {
          "indexed": false,
          "internalType": "uint256",
          "name": "delay",
          "type": "uint256"
        }
      ],
      "name": "TimerSet",
      "type": "event"
    },
    {
      "inputs": [],
      "name": "decrement",
      "outputs": [],
      "stateMutability": "nonpayable",
      "type": "function"
    },
    {
      "inputs": [],
      "name": "getCount",
      "outputs": [
        {
          "internalType": "uint256",
          "name": "",
          "type": "uint256"
        }
      ],
      "stateMutability": "view",
      "type": "function"
    },
    {
      "inputs": [],
      "name": "getTimeRemaining",
      "outputs": [
        {
          "internalType": "uint256",
          "name": "",
          "type": "uint256"
        }
      ],
      "stateMutability": "view",
      "type": "function"
    },
    {
      "inputs": [],
      "name": "increment",
      "outputs": [],
      "stateMutability": "nonpayable",
      "type": "function"
    },
    {
      "inputs": [
        {
          "internalType": "uint256",
          "name": "delay",
          "type": "uint256"
        }
      ],
      "name": "setTimer",
      "outputs": [],
      "stateMutability": "nonpayable",
      "type": "function"
    }
  ],
  "bytecode": "0x608060405234801561001057600080fd5b5060008055426001556102fa806100286000396000f3fe608060405234801561001057600080fd5b50600436106100575760003560e01c80632baeceb71461005c578063a87d942c14610066578063b976bd171461007c578063d09de08a1461008f578063dac6270d14610097575b600080fd5b61006461009f565b005b6000545b60405190815260200160405180910390f35b61006461008a366004610239565b610140565b610064610183565b61006a610215565b6001544210156100ef5760405162461bcd60e51b815260206004820152601660248201527554696d6572206973207374696c6c2072756e6e696e6760501b60448201526064015b60405180910390fd5b6000805490806100fe83610268565b91905055507f1a00a27c962d5410357331e1a8cffff62058bd0161ad624818df31152f1eeb4560005460405161013691815260200190565b60405180910390a1565b61014a814261027f565b6001556040518181527fc0aa764aa85d2e99a0f5ac18a2fc855849970032cf45160283a5957a781b77899060200160405180910390a150565b6001544210156101ce5760405162461bcd60e51b815260206004820152601660248201527554696d6572206973207374696c6c2072756e6e696e6760501b60448201526064016100e6565b6000805490806101dd83610298565b91905055507f3cf8b50771c17d723f2cb711ca7dadde485b222e13c84ba0730a14093fad6d5c60005460405161013691815260200190565b600060015442106102265750600090565b4260015461023491906102b1565b905090565b60006020828403121561024b57600080fd5b5035919050565b634e487b7160e01b600052601160045260246000fd5b60008161027757610277610252565b506000190190565b8082018082111561029257610292610252565b92915050565b6000600182016102aa576102aa610252565b5060010190565b818103818111156102925761029261025256fea2646970667358221220bf3991c934709fc674515b1e616a0abc4ae8bce102f525083b01c1df8de2037264736f6c63430008180033",
  "linkReferences": {},
  "deployedLinkReferences": {}
}